:020000040800F2
:10000000183F0020A5010008296C00088D60000839
:10001000256C0008B90A0008EDA8000800000000DF
:1000200000000000000000000000000065700008F3
:10003000D50C00080000000061700008BD700008C9
:10004000BF010008BF010008BF010008BF01000890
:10005000BF010008BF010008D90C0008BF0100085B
:10006000BF010008E50C0008BF010008BF0100083F
:10007000690B0008BF010008BF010008BF010008AC
:10008000BF010008BF010008BF010008BF01000850
:10009000BD0A0008BF010008BF010008BF01000839
:1000A000BF010008F5710008BF010008BF0100088A
:1000B000BF010008BF010008BF010008BF01000820
:1000C000BF010008BF010008BF010008BF01000810
:1000D000BF010008457C0008BF010008557C0008EE
:1000E000BF010008BF010008BF010008BF010008F0
:1000F000BF010008BF010008BF010008BF010008E0
:10010000BF010008BF010008BF010008BF010008CF
:10011000BF010008BF010008BF010008BF010008BF
:10012000BF010008BF010008790B0008BF010008EB
:10013000BF010008BF010008BF010008BF0100089F
:10014000CD0A0008BF010008BF010008916C00083B
:10015000BF010008BF010008890B00085D7C000892
:10016000BF010008BF010008BF010008BF0100086F
:10017000BF010008BF010008BF0100080000000027
:10018000BF010008BF010008DFF814D000F02CFA0E
:1001900000F004FB0048004761BE000800F06CFA64
:1001A000183F00200648804706480047FEE7FEE764
:1001B000FEE7FEE7FEE7FEE7FEE7FEE7FEE7FEE717
:1001C00085710008890100080B460146184600F0B9
:1001D00043B82DE9F05F0546002092469B468846CD
:1001E0000646814640241BE02846414647462246B3
:1001F00000F01BFA53465A46C01A914110D31146DB
:100200001846224600F002FA2D1A67EB01084F4605
:1002100022460120002100F0F9F917EB00094E41B8
:10022000201EA4F10104DFDC484631462A4643463D
:10023000BDE8F09F40EA01039B0703D009E008C92D
:10024000121F08C0042AFAD203E011F8013B00F89B
:10025000013B521EF9D270472DE9F0410746154681
:100260000E4610200CF0F6F904000AD06760C4E9CD
:10027000026500F0FDF90168216004600020BDE81E
:10028000F0810120FBE72DE9FE4F804681EA030063
:10029000C00F0C46009021F0004123F00045B8EB60
:1002A0000200A94105D24046214690461C460B4615
:1002B000024623F00040104347D0270DC7F30A0041
:1002C000C3F30A510290401A019040286BDAC3F33D
:1002D000130040F4801B0098924620B10023D2EB1B
:1002E000030A63EB0B0B01985946C0F140025046DC
:1002F00000F08CF906460D4650465946019A00F02A
:10030000A4F910EB08006141002487EA115284EA45
:10031000E7731A4340D0009A62B3019A012A4FEA68
:10032000075215DC001B61EB02014FF0004202EAAC
:100330000752CDE90042001C41F5801132462B46A0
:1003400000F0CAF903B0BDE8F08F40462146F9E756
:10035000001B61EB0201001C41F5801300185B419A
:100360002018A2F5001747EB030140EAD570B61933
:100370006D4111E06D084FEA360645EAC0754FEA57
:100380000752001B61EB0201001C41F58011490876
:100390004FEA30000019514132462B4603B0BDE808
:1003A000F04F00F08AB90098012240000023D0EB02
:1003B000020263EBE073009821464FEAE074B8EB69
:1003C000000061EB0401E9E783F000435BE781F0A3
:1003D000004158E72DE9FE4F81EA030404F0004490
:1003E00021F0004100944FF0000B23F0004350EA4D
:1003F00001045ED052EA03045BD0C3F30A54C1F394
:100400000A552C44A4F2F3340194A0FB0254C1F326
:10041000130141F48011C3F3130343F4801301FB70
:10042000024400FB034E840A970A44EA815447EAD7
:100430008357A4FB076802958D0A05FB07854FEAE1
:10044000932C04FB0C542705029D4FEA065847EAFB
:100450001637B5EB08056EEB070C870E920E47EAD0
:10046000811742EA8312A7FB0201B6EB0B0164EB92
:1004700000042B0D43EA0C335E1844EB1C50DA46A3
:100480005146E7FB0201C5F313044FEA0B3343EA7D
:1004900014534FEA0432019C43EA0603A4F10C040E
:1004A0000294009CCDE900B400F016F903B0BDE859
:1004B000F08F00200146F9E72DE9F04D81EA0304B1
:1004C00004F0004B21F0004514464FF0000A23F0E1
:1004D000004150EA050220D054EA01021DD0C5F3C4
:1004E0000A570246C5F31303C1F31300C1F30A56BA
:1004F00040F4801543F48013A7EB0608101BD64682
:1005000008F2FD3873EB050002D308F1010801E0A1
:1005100092185B41B8F1000F03DA00200146BDE8F4
:10052000F08D00204FF48011064684460EE0171B24
:1005300073EB050705D3121B63EB050306434CEA77
:10054000010C49084FEA300092185B4150EA01075C
:10055000EDD152EA030012D082EA040083EA0501D9
:10056000084305D0101BAB4106D20122002306E050
:1005700000224FF0004302E06FF0010253101AEB2B
:1005800006004CEB085110EB0A0041EB0B01BDE8F3
:10059000F04D00F092B80EB5C10F80EAE07008444B
:1005A000CA07002140F233438DE80E000A460B468D
:1005B00000F092F803B000BD30B5041E71F10004E4
:1005C00004DB4FF00044404264EB0101141E73F160
:1005D000000405DB1C464FF00043524263EB04036A
:1005E0008B4208BF824230BD064C074D06E0E068F2
:1005F00040F0010394E8070098471034AC42F6D36A
:10060000FFF7C6FD84C70008A4C70008202A04DB42
:10061000203A00FA02F1002070479140C2F1200315
:1006200020FA03F3194390407047202A04DB203A54
:1006300021FA02F00021704721FA02F3D040C2F102
:1006400020029140084319467047202A06DBCB1749
:10065000203A41FA02F043EAE07306E041FA02F37D
:10066000D040C2F120029140084319467047000073
:10067000004870470C0000202DE9F0410646FFF7C6
:10068000F7FF8046454613E016B1E068B0420ED150
:1006900020682860D4E90101D8F800708847204616
:1006A0000BF060FFD8F80000B842EBD100E025461F
:1006B0002C68002CE8D1BDE8F08110B5141E73F150
:1006C000000408DA401C41F1000192185B411A4312
:1006D00001D120F0010010BD2DE9F04D92469B465E
:1006E00011B1B1FA81F202E0B0FA80F22032904604
:1006F000FFF78CFF04460F4640EA0A0041EA0B016F
:1007000053465A46084313D0114653EA010019D004
:10071000C8F140025046FFF788FF05460E46504696
:1007200059464246FFF772FF084305D0012004E016
:1007300020463946BDE8F08D0020054346EAE076C4
:100740002C4337430A986305E40AA0EB0800002213
:10075000FD0A44EA47540A3002D500200146E9E781
:10076000010510196941DDE9084500196941BDE835
:10077000F04DA2E77047D2B201E000F8012B491E0C
:10078000FBD270470022F6E710B513460A4604462E
:100790001946FFF7F0FF204610BD000070B5054C6C
:1007A000054D04E02046016808448047241DAC4202
:1007B000F8D170BDA4C70008ACC700080EB540F260
:1007C000334102910021CDE900110A460B46FFF7A3
:1007D00083FF03B000BDC1F30A5210B5C1F313018A
:1007E00040F2FF3341F480119A4201DA002010BD3B
:1007F00040F233439A42A2F2334203DC5242FFF703
:1008000014FF10BD904010BD00F0004230F00040D9
:100810000AD0C10D01F56071C0F3160042EA015122
:10082000C20840071143704700200146704701F09D
:10083000004330B421F0004150EA010206D00A0D15
:10084000A2F56072C1F31301002A02DC30BC002063
:100850007047440F44EAC104C100E01830BC00EB0B
:10086000C250AFF300800029A8BF7047401C490068
:1008700008BF20F00100704710B4B0FA80FC00FA05
:100880000CF050EA010404BF10BC704749B1CCF130
:10089000200421FA04F411FA0CF118BF01212143BC
:1008A0000843A3EB0C01CB1D4FEA00614FEA102077
:1008B00042BF002010BC704700EBC3501044002919
:1008C000A4BF10BC7047401C490008BF20F00100C5
:1008D00010BC704770B58C1810F8015B15F0070359
:1008E00001D110F8013B2A1106D110F8012B03E0C9
:1008F00010F8016B01F8016B5B1EF9D12B0705D4D1
:100900000023521E0DD401F8013BFAE710F8013B19
:10091000CB1A921C03E013F8015B01F8015B521E35
:10092000F9D5A142D8D3002070BD000082B001905B
:1009300042F20030C4F2010000900098416821F4B6
:10094000403141600198406800994A68104348600E
:1009500001980068416821F4807141600198016844
:1009600000694A6842EA00204860019800684168CE
:1009700021F0407141600198016880684A68104325
:10098000486001980068816821F4006181600198E5
:100990000168C0688A68104388600198806A0121F4
:1009A000C0F60071884219D0FFE70198006881689D
:1009B00021F07061816001980168806A8A68104343
:1009C000886001980068816821F040518160019839
:1009D0000168C06A8A68104388600CE0019800686A
:1009E000816821F07061816001980068816821F060
:1009F00040518160FFE701980068816821F00201A1
:100A000081600198017E0068826842EA410181604C
:100A1000019890F82000C8B1FFE70198006841688C
:100A200041F40061416001980068416821F460412F
:100A3000416001980168406A4EF20002CFF6FF72F1
:100A400002EB40304A681043486006E001980068B5
:100A5000416821F400614160FFE701980068C16AC4
:100A600021F47001C16201980168C0690022CFF6CB
:100A7000F07202EB0050CA6A1043C8620198006825
:100A8000816821F400718160019890F8301000684D
:100A9000826842EA4121816001980068816821F4FE
:100AA000806181600198016840698A6842EA80201B
:100AB000886002B070470000FFE7FEE780B541F6AE
:100AC0007860C2F2000000F05FFF80BD80B541F6A3
:100AD000A060C2F2000000F057FF80BD83B08DF827
:100AE0000B000191ADF802209DF80B0023281CD8C3
:100AF000DFE800F012131415161B1B1B1B1B1B1B1E
:100B00001B1B1B1B1B1B1B1B1B1B1B1B1B1B1B1B35
:100B10001B1B1B1B1718191A08E007E006E005E06D
:100B200004E003E002E001E000E0FFE7002003B0A2
:100B3000704700000020704780B507F079FA40F652
:100B40004800C2F2000007F061FA002080BD0000FA
:100B500080B582B001900091019807F057FA07F034
:100B600005FA002002B080BD80B541F68870C2F25F
:100B7000000001F03FFB80BD80B541F6C860C2F2C5
:100B8000000001F037FB80BD80B541F62870C2F24D
:100B9000000001F02FFB80BD82B001900198007829
:100BA00010384AF6AB21CAF6AA21A0FB01010809B8
:100BB000009000984CF23071C0F60001085C019979
:100BC000C8650098042807D3FFE70198016804224C
:100BD00062F30901816506E00198016840F2FF3285
:100BE00091438165FFE70198806D02B07047000076
:100BF00083B0029000208DF807000298806A009070
:100C00000298806900BBFFE7009803281AD8DFE844
:100C100000F0020D0218029890F82F00C00720B1D2
:100C2000FFE701208DF80700FFE70CE00298C06A9B
:100C3000B0F1C07F04D1FFE701208DF80700FFE786
:100C400001E000E0FFE741E002988069B0F5005F55
:100C500023D1FFE7009803281DD8DFE800F0020643
:100C6000021101208DF8070016E0029890F82F007D
:100C7000C00720B1FFE701208DF80700FFE70BE078
:100C80000298C06AB0F1C07F04D1FFE701208DF85F
:100C90000700FFE700E0FFE717E00098032803D311
:100CA000FFE7032804D00EE001208DF807000BE0D9
:100CB000029890F82F00C00720B1FFE701208DF8BF
:100CC0000700FFE700E0FFE7FFE7FFE79DF8070009
:100CD00003B070477047000080B5012001F036FD79
:100CE00080BD000080B5082001F030FD80BD00000F
:100CF00010B584B047F61020C1F6FF70006803906D
:100D000047F61420C1F6FF700068029047F61820DD
:100D1000C1F6FF70006801900198039908440390A0
:100D2000039880B1FFE7039840F26814C2F2000410
:100D3000A11C082205F0ACF9029804F1120104226A
:100D400005F0A6F9FFE704B010BD000085B00390E0
:100D5000029100200190FFE7039890F83C000128E1
:100D600004D1FFE702208DF81300F9E00398012178
:100D700080F83C10FFE7FFE7029800680A281CD3C0
:100D8000FFE70298008800EB40001E38072101FAB7
:100D900000F003990968CA6822EA0000C860029856
:100DA0008168008800EB40001E3801FA00F00399CA
:100DB0000968CA681043C86019E00298008800EB0F
:100DC0004000072101FA00F0039909680A6922EA44
:100DD0000000086102988168008800EB400001FA79
:100DE00000F0039909680A6910430861FFE7029857
:100DF000406806281CD8FFE70298406800EB800096
:100E000005381F2101FA00F0039909684A6B22EAAC
:100E10000000486302980188406800EB80000538B4
:100E200001FA00F0039909684A6B104348633DE0FA
:100E3000029840680C281CD8FFE70298406800EB35
:100E4000800023381F2101FA00F0039909680A6B1A
:100E500022EA0000086302980188406800EB8000E5
:100E6000233801FA00F0039909680A6B10430863FC
:100E70001BE00298406800EB800041381F2101FA16
:100E800000F003990968CA6A22EA0000C862029861
:100E90000188406800EB8000413801FA00F00399B6
:100EA0000968CA6A1043C862FFE7FFE742F20030F0
:100EB000C4F2010000900398006842F20001C4F2FD
:100EC000010188420BD1FFE702980068122806D181
:100ED000FFE70098416841F480014160FFE7039813
:100EE000006842F20001C4F2010188422ED1FFE7FE
:100EF00002980068102805D0FFE7029800681128C2
:100F000024D1FFE70098416841F400014160029854
:100F10000068102819D1FFE740F22C00C2F200004F
:100F200000684DF68361C4F21B31A0FB0101880CFF
:100F300000EB800040000190FFE7019820B1FFE73F
:100F4000019801380190F8E7FFE7FFE7FFE7039812
:100F5000002180F83C10FFE700208DF81300FFE728
:100F60009DF8130005B0704781B0009000980068AC
:100F7000C06C01B07047000080B584B002900020C2
:100F80008DF80700029820B9FFE701208DF80F00C7
:100F900042E00298806A0121C0F60071884201D0C7
:100FA000FFE7FFE70298006C50B9FFE7029800F0F6
:100FB00037F8029800214164029880F83C10FFE75E
:100FC0000298006CC006002817D4FFE70298006C56
:100FD00040F0020020F48850029908640298FFF75C
:100FE000A5FC0298002141640298006C40F00100C9
:100FF00020F002000299086403E001208DF8070048
:10100000FFE7FFE70298002180F83C10FFE79DF81A
:1010100007008DF80F00FFE79DF80F0004B080BDBA
:1010200080B58AB00990002008900790069005903E
:1010300004900998006842F20001C4F2010188425C
:1010400012D1FFE7FFE70020039043F64400C4F20B
:101050000200016841F480710160006800F4807052
:1010600003900398FFE73AE00998006842F20021F4
:10107000C4F20101884231D1FFE7FFE7002002906E
:1010800043F64400C4F20200016841F4806101604B
:10109000006800F4806002900298FFE7FFE70020FC
:1010A000019043F63000C4F20200016841F02001D3
:1010B0000160006800F0200001900198FFE74FF404
:1010C00080600490032005900020069041F20040CB
:1010D000C4F2020004A901F055FBFFE7FFE70AB0E4
:1010E00080BD000080B584B00290022001900020F5
:1010F00000900298006880684005002816D5FFE738
:10110000029800688068C00500280FD5FFE70298A4
:10111000016C41F020010164FFE70298002180F892
:101120003C10FFE701208DF80F0064E001F02AFD7C
:101130000090FFE702980068006800F002000228B3
:1011400020D0FFE701980130D8B1FFE7019840B106
:10115000FFE701F017FD0099401A019988420FD965
:10116000FFE70298016C41F004010164FFE7029877
:10117000002180F83C10FFE703208DF80F003AE0D3
:10118000FFE7D7E7029800686FF01201016002984C
:10119000016C41F40071016402980068806810F0ED
:1011A000405F24D1FFE70298007E00BBFFE7029872
:1011B0000068C06A10F4700F07D0FFE7029800685B
:1011C00080684005002812D4FFE70298016C21F4E2
:1011D000807101640298006CC004002806D4FFE707
:1011E0000298016C41F001010164FFE7FFE7002074
:1011F0008DF80F00FFE704B080BD000084B00290BE
:1012000000200190FFE7029890F83C00012804D1EB
:10121000FFE702208DF80F00C9E00298012180F855
:101220003C10FFE7FFE7029800688068C007F0B94C
:10123000FFE702980068816841F00101816040F297
:101240002C00C2F2000000684DF68361C4F21B312D
:10125000A0FB0101880C00EB40000190FFE7019822
:1012600020B1FFE7019801380190F8E7FFE7029805
:1012700000688068C007002800F09580FFE70298AA
:10128000006C40F4807040F2016188430299086468
:101290000298006840684005002809D5FFE70298D9
:1012A000006C40F4805020F4005002990864FFE77D
:1012B0000298006CC004002806D5FFE70298416C34
:1012C00021F00601416403E0029800214164FFE738
:1012D000FFE70298002180F83C10FFE742F200305F
:1012E000C4F201000090029800686FF022010160D2
:1012F00000984068C006E8BBFFE70298006842F229
:101300000001C4F20101884224D0FFE7029800687E
:1013100042F20011C4F20101884208D1FFE742F213
:101320000430C4F201000068C00698B1FFE70298DB
:10133000006842F20021C4F20101884219D1FFE79E
:1013400042F20430C4F20100006800F01F000F28D0
:101350000FD8FFE702980068806810F0405F07D15F
:10136000FFE702980068816841F080418160FFE7F3
:10137000FFE717E00298006842F20001C4F20101A1
:1013800088420ED1FFE702980068806810F0405F45
:1013900007D1FFE702980068816841F080418160D1
:1013A000FFE7FFE7FFE700208DF80F00FFE704B03D
:1013B0007047000082B041F6E850C2F20000009091
:1013C000FFE7009890F83C00012804D1FFE70220D5
:1013D0008DF8070024E00098012180F83C10FFE719
:1013E000FFE700980068816821F0010181600098A2
:1013F00000688068C00748B9FFE70098006C40F0BB
:10140000010020F4885000990864FFE7FFE7009886
:10141000002180F83C10FFE700208DF80700FFE76F
:1014200002B0704784B0029002200190029890F8B8
:1014300020008DF803009DF80300012805D0FFE788
:101440009DF8030002280AD1FFE701980299096874
:101450004A691043486100208DF80F0008E00298A7
:10146000416A41F48021416201208DF80F00FFE7BD
:1014700004B0704788B00690059104920120039053
:10148000069890F820008DF807000698006880689C
:1014900000900598806808B9FFE700E0FFE79DF835
:1014A0000700012806D0FFE79DF80700022840F05A
:1014B0008E80FFE79DF80300400700280CD4FFE76B
:1014C0009DF803000007002806D4FFE79DF80300FD
:1014D000C006002872D5FFE70098C0F301600290B3
:1014E0000298032809D3FFE70698416A41F40001F6
:1014F000416201208DF81F0072E00298012101FA7B
:1015000000F0039908600598806868B9FFE70598BE
:101510000168C06840EA415006990968029A01EBE7
:101520000211C1F880010EE0059841688268C06828
:1015300042EAC101084306990968029A01EB0211C7
:10154000C1F88001FFE70598006906990968029AC9
:1015500001EB0211C1F884010598007D01280CD12E
:10156000FFE706980068029900EB0110D0F884119B
:1015700041F48071C0F88411FFE70498406806992F
:101580000968029A01EB0211C1F88C010498006805
:1015900006990968029A01EB0211C1F888010698C0
:1015A0000068029900EB0110D0F8801141F00101B0
:1015B000C0F8801100208DF81F0011E00698416AE4
:1015C00041F40011416201208DF81F0008E00698E7
:1015D000416A41F48021416201208DF81F00FFE73C
:1015E00008B0704786B00490039104980068019099
:1015F000049890F820008DF803009DF8030001285E
:1016000006D0FFE79DF80300022840F0B580FFE711
:1016100046F20040C4F2000001900198D0F8001298
:1016200041F00101C0F800120198D0F8001221F435
:101630007C51C0F800120398406A0199D1F8002249
:1016400042EA0020C1F800020398406900F01F0040
:10165000012101FA00F0029002980199D1F81C22B0
:1016600022EA0000C1F81C020398C069F8B9FFE73C
:1016700002980199D1F80C2222EA0000C1F80C026C
:1016800003988188C268406941EA0241019A02EBED
:10169000C000C0F84012039801888268406941EA9E
:1016A0000241019A02EBC000C0F84412FFE7039820
:1016B000C06901281ED1FFE702980199D1F80C22D8
:1016C0001043C1F80C02039881880268406941EA1E
:1016D0000241019A02EBC000C0F8401203988189D0
:1016E0008268406941EA0241019A02EBC000C0F8F9
:1016F0004412FFE70398806948B9FFE7029801990F
:10170000D1F8042222EA0000C1F8040207E002989E
:101710000199D1F804221043C1F80402FFE70398AD
:10172000006948B9FFE702980199D1F8142222EA2A
:101730000000C1F8140207E002980199D1F81422C0
:101740001043C1F81402FFE70398006A012808D18A
:10175000FFE702980199D1F81C221043C1F81C023E
:10176000FFE70198D0F8001221F00101C0F8001243
:1017700000208DF8170008E00498416A41F48021A8
:10178000416201208DF81700FFE706B070470000A6
:1017900081B0009001B0704786B0049000200390A3
:1017A00002910192049890F820008DF803009DF8B2
:1017B0000300012806D0FFE79DF80300022840F04F
:1017C000D780FFE7039880B9FFE704980068C068F6
:1017D000800748B9FFE70498416A41F4001141626B
:1017E00001208DF81700CCE00FE004980068006934
:1017F000800748B9FFE70498416A41F4001141624B
:1018000001208DF81700BCE0FFE7049800680399F9
:1018100000EB0110D0F8B00100F0040002998860DC
:101820000298806858B9FFE704980068039900EBB4
:101830000110D0F8B001400D029908600AE0049848
:101840000068039900EB0110D0F8B001C0080299BC
:101850004860FFE704980068039900EB0110D0F896
:10186000B00100F002000299C86004980068039972
:1018700000EB0110D0F8B40100F00F0002990861EC
:1018800004980068039900EB0110D0F8B40180B20D
:10189000000A0299886104980068039900EB01101E
:1018A000D0F8B401000C02994861049800680399CB
:1018B00000EB0110D0F8B801019908700498006895
:1018C000039900EB0110D0F8B801000A01994870A3
:1018D00004980068039900EB0110D0F8B801000CDF
:1018E0000199887004980068039900EB0110D0F802
:1018F000B801000E0199C87004980068039900EBC4
:101900000110D0F8BC01019908710498006803998E
:1019100000EB0110D0F8BC01000A0199487104984D
:101920000068039900EB0110D0F8BC01000C01998C
:10193000887104980068039900EB0110D0F8BC018D
:10194000000E0199C871039838B9FFE70498006840
:10195000C16841F02001C16006E004980068016997
:1019600041F020010161FFE700208DF8170008E039
:101970000498416A41F48021416201208DF81700EA
:10198000FFE706B07047000080B588B007900020E0
:1019900006900798006840690590079800684068BD
:1019A0000490079800688068039007980068C068F2
:1019B00002900798006800690190079800688069A4
:1019C00000909DF81400C007002800F09480FFE705
:1019D0009DF80C00C00758B3FFE707980068012185
:1019E00081609DF80C008007002804D5FFE7079868
:1019F00000F0C6FB1BE09DF80C004007002805D551
:101A0000FFE7069840F4006006900FE09DF80C0098
:101A10000007002805D5FFE7069840F4805006909F
:101A200003E0079800F0A8FBFFE7FFE7FFE7FFE709
:101A30009DF80D00C00760B3FFE7079800684FF4FA
:101A4000807181609DF80D008007002804D5FFE7B4
:101A5000079800F09DFB1BE09DF80D004007002853
:101A600005D5FFE7069840F4005006900FE09DF87A
:101A70000D000007002805D5FFE7069840F48040D8
:101A8000069003E0079800F07FFBFFE7FFE7FFE722
:101A9000FFE79DF80E00C00760B3FFE707980068F6
:101AA0004FF4803181609DF80E008007002804D536
:101AB000FFE7079800F074FB1BE09DF80E0040075D
:101AC000002805D5FFE7069840F4004006900FE097
:101AD0009DF80E000007002805D5FFE7069840F4A2
:101AE0008030069003E0079800F056FBFFE7FFE721
:101AF000FFE7FFE7FFE79DF814000007002810D577
:101B0000FFE79DF80800C006002809D5FFE7069802
:101B100040F400700690079800681021C160FFE74C
:101B2000FFE79DF81400400700280FD5FFE79DF858
:101B300008000007002808D5FFE70798006808217B
:101B4000C160079800F0BCFAFFE7FFE79DF81400BA
:101B5000800700280BD5FFE707980068C06880075A
:101B600020B1FFE7079800F0AFFAFFE7FFE79DF825
:101B700014004006002810D5FFE79DF80400C006B9
:101B8000002809D5FFE7069840F480600690079882
:101B9000006810210161FFE7FFE79DF8140080064F
:101BA00000280FD5FFE79DF804000007002808D59E
:101BB000FFE70798006808210161079800F08CFA98
:101BC000FFE7FFE79DF81400C00600280BD5FFE7EC
:101BD000079800680069800720B1FFE7079800F0C8
:101BE0007FFAFFE7FFE79DF81600800700280FD572
:101BF000FFE79DF81000C006002808D5FFE707980A
:101C0000006810214160079800F06EFAFFE7FFE7D7
:101C10009DF81600C00778B1FFE79DF81000000797
:101C2000002808D5FFE70798006808214160079859
:101C300000F0BAFAFFE7FFE79DF81500000600285C
:101C400040F18580FFE79DF810004007002879D516
:101C5000FFE79DF81500C00750B1FFE79DF80000B1
:101C6000C00728B1FFE7069840F001000690FFE7A3
:101C70009DF81500800700280BD5FFE79DF80000B0
:101C80008007002805D5FFE7069840F0020006907F
:101C9000FFE79DF81500400700280BD5FFE79DF8EA
:101CA00000004007002805D5FFE7069840F0040033
:101CB0000690FFE79DF815000007002841D5FFE7D3
:101CC0009DF8000010F0700F3BD0FFE7009800F087
:101CD000700010280FD0FFE7202811D0FFE7302830
:101CE00013D0FFE7402815D0FFE7502817D0FFE7B3
:101CF000602819D01DE0069840F00800069019E011
:101D0000069840F01000069014E0069840F020007D
:101D100006900FE0069840F0400006900AE0069812
:101D200040F08000069005E0069840F48070069030
:101D300000E0FFE707980068816921F07001816188
:101D4000FFE7FFE70798006804214160FFE7069876
:101D500048B1FFE7069807994A6A10434862079816
:101D6000FFF716FDFFE708B080BD000080B584B026
:101D70000290029820B9FFE701208DF80F00DEE005
:101D8000029890F8200020B9FFE7029800F0DCF8F4
:101D9000FFE702980068016821F00201016000F08D
:101DA000F1FE0190FFE70298006840688007002874
:101DB00015D5FFE700F0E6FE0199401A0B280DD378
:101DC000FFE70298416A41F400314162029805211F
:101DD00080F8201001208DF80F00B0E0E3E70298B2
:101DE0000068016841F00101016000F0CBFE019044
:101DF000FFE7029800684068C007A8B9FFE700F055
:101E0000C1FE0199401A0B280DD3FFE70298416AE1
:101E100041F4003141620298052180F82010012030
:101E20008DF80F008BE0E4E70298007E012807D1CF
:101E3000FFE702980068016841F08001016006E058
:101E400002980068016821F080010160FFE70298B4
:101E5000407E012807D1FFE702980068016841F041
:101E60004001016006E002980068016821F040012D
:101E70000160FFE70298807E012807D1FFE7029802
:101E80000068016841F02001016006E002980068E6
:101E9000016821F020010160FFE70298C07E01285F
:101EA00007D1FFE702980068016821F01001016086
:101EB00006E002980068016841F010010160FFE748
:101EC0000298007F012807D1FFE7029800680168A7
:101ED00041F00801016006E002980068016821F005
:101EE00008010160FFE70298407F012807D1FFE762
:101EF00002980068016841F00401016006E0029860
:101F00000068016821F004010160FFE70298D0F841
:101F100000C042688368C168194303691943406976
:101F20000843511E0843CCF81C000298002141626E
:101F30000298012280F820208DF80F10FFE79DF80D
:101F40000F0004B080BD000080B58CB00B90002065
:101F50000A9009900890079006900B98006846F246
:101F60000041C4F20001884246D1FFE740F27050C0
:101F7000C2F200000168013101600068012812D13D
:101F8000FFE7FFE70020059043F64000C4F202009F
:101F9000016841F000710160006800F00070059078
:101FA0000598FFE7FFE7FFE70020049043F63000C5
:101FB000C4F20200016841F008010160006800F00D
:101FC000080004900498FFE703200690022107917F
:101FD00000210891099009200A9040F60040C4F2BF
:101FE000020006A900F0CEFB1420002101F050F8F9
:101FF000142001F043F861E00B98006846F60001F8
:10200000C4F20001884258D1FFE7FFE700200390A7
:1020100043F64000C4F20200016841F080610160B3
:10202000006800F0806003900398FFE740F2705072
:10203000C2F200000168013101600068012812D17C
:10204000FFE7FFE70020029043F64000C4F20200E1
:10205000016841F000710160006800F000700290BA
:102060000298FFE7FFE7FFE70020019043F630000A
:10207000C4F20200016841F002010160006800F052
:10208000020001900198FFE760200690022007906F
:10209000002008900320099009200A9040F2004097
:1020A000C4F2020006A900F06DFB4020002100F000
:1020B000EFFF402000F0E2FFFFE7FFE70CB080BD3C
:1020C00081B0009001B0704780B582B00190019856
:1020D00009F0EEFC02B080BD81B0009001B0704705
:1020E00081B0009001B0704781B0009001B070479E
:1020F00080B584B00290029890F8200001282FD17A
:10210000FFE70298022180F8201002980068016819
:1021100021F00101016000F035FD0190FFE7029818
:1021200000684068C007A8B1FFE700F02BFD0199E7
:10213000401A0B280DD3FFE70298416A41F40031A1
:1021400041620298052180F8201001208DF80F00CF
:102150000FE0E4E70298002141628DF80F1008E0DB
:102160000298416A41F40021416201208DF80F007C
:10217000FFE704B080BD000081B0009001B070475F
:1021800081B0009001B0704781B0009001B07047FD
:1021900081B0009001B0704781B0009001B07047ED
:1021A00081B0009001B0704781B0009001B07047DD
:1021B00082B00090009890F83500022807D0FFE721
:1021C00000988021416501208DF807000EE00098FD
:1021D000052180F8351000980068016821F00101A0
:1021E0000160FFE700208DF80700FFE79DF807007A
:1021F00002B0704780B586B005900020039040F291
:102200002C00C2F20000006848F2B511C1F64E3150
:10221000A0FB0101880A02900598806D0190019849
:102220000068049004980599C96DC840000700280B
:102230001BD5FFE70598006800684007002813D504
:10224000FFE705980068016821F004010160059826
:10225000C06D082101FA00F0019988600598416D70
:1022600041F001014165FFE7FFE704980599C96D59
:10227000C840C007A8B1FFE705980068406900069C
:1022800000280DD5FFE70598C06D012101FA00F087
:10229000019988600598416D41F002014165FFE7B1
:1022A000FFE704980599C96DC8404007002815D577
:1022B000FFE7059800680068800700280DD5FFE754
:1022C0000598C06D042101FA00F001998860059815
:1022D000416D41F004014165FFE7FFE7049805996E
:1022E000C96DC840C006002848D5FFE705980068BA
:1022F00000680007002840D5FFE70598C06D102151
:1023000001FA00F0019988600598006800684003B0
:1023100000281AD5FFE70598006800680003002828
:1023200009D4FFE70598006C20B1FFE70598016C20
:102330008847FFE708E00598806C20B1FFE7059823
:10234000816C8847FFE7FFE716E0059800680068A2
:10235000C005002807D4FFE705980068016821F050
:1023600008010160FFE70598006C20B1FFE70598C0
:10237000016C8847FFE7FFE7FFE7FFE7049805994F
:10238000C96DC8408006002840F18F80FFE705989E
:1023900000680068C006002840F18680FFE70598C5
:1023A000C06D202101FA00F001998860059890F82D
:1023B0003500052835D1FFE705980068016821F050
:1023C0001601016005980068416921F080014161B2
:1023D0000598006C20B9FFE70598806C38B1FFE7DD
:1023E00005980068016821F008010160FFE7059881
:1023F000C06D3F2101FA00F001998860FFE7059860
:10240000002180F83410FFE70598012180F835108D
:102410000598006D20B1FFE70598016D8847FFE73B
:102420007CE0059800680068400300281AD5FFE7A3
:102430000598006800680003002809D4FFE70598A4
:10244000406C20B1FFE70598416C8847FFE708E042
:102450000598C06B20B1FFE70598C16B8847FFE77F
:10246000FFE720E0059800680068C005002811D447
:10247000FFE705980068016821F010010160FFE79F
:102480000598002180F83410FFE70598012180F8B5
:102490003510FFE70598C06B20B1FFE70598C16BC9
:1024A0008847FFE7FFE7FFE7FFE70598406DA8B320
:1024B000FFE70598406DC00738B3FFE70598052191
:1024C00080F8351005980068016821F0010101606D
:1024D000FFE70398013003900299884201D9FFE792
:1024E00008E0FFE7059800680068C0070028F0D101
:1024F000FFE7FFE7FFE70598002180F83410FFE7CA
:102500000598012180F83510FFE70598C06C20B1CF
:10251000FFE70598C16C8847FFE7FFE706B080BD7D
:1025200080B586B004900020039000F02BFB029051
:10253000049820B9FFE701208DF81700A3E0049864
:10254000406A08B1FFE7FFE7FFE70498002180F841
:102550003410FFE70498022180F8351004980068D1
:10256000016821F001010160FFE70498006800683C
:10257000C00790B1FFE700F005FB0299401A06285A
:102580000AD3FFE70498202141650498032180F8CD
:1025900035108DF8171076E0E7E7049800680068BA
:1025A0000390039848F23F01CFF2100108400390D6
:1025B0000498D0F804C08268C368016942EA0C023A
:1025C0001A4311434269114382691143C26911439D
:1025D000006A08430399084303900498406A04285A
:1025E00008D1FFE70498C16A006B084303990843C8
:1025F0000390FFE70398049909680860049800684D
:1026000040690390039820F0070003900498406A03
:102610000399084303900498406A04281AD1FFE7FD
:102620000498806A0399084303900498C06A80B1B3
:10263000FFE70498FEF7DCFA50B1FFE70498402169
:1026400041650498012180F835108DF817101AE0C3
:10265000FFE7FFE703980499096848610498FEF7CB
:102660009BFA01900498C06D3F2101FA00F0019996
:1026700088600498002141650498012280F8352083
:102680008DF81710FFE79DF8170006B080BD000019
:1026900080B584B0039000F075FA02900398019021
:1026A0000198013020B1FFE7019801300190FFE768
:1026B000FFE700F067FA0299401A0199884201D2B7
:1026C000FFE7F6E704B080BD10B582B0ADF80600B4
:1026D00042F20070C2F20000007808B9FFE733E070
:1026E000BDF8060001282FD1FFE700F017FA40F2ED
:1026F0009C11C2F20001087000F044FA42F2047426
:10270000C2F200042168401A009000F03BFA2060F9
:102710000098322817D3FFE740F29C10C2F2000065
:102720000078012807D1FFE742F20870C2F20000EA
:102730000021017006E042F20870C2F2000001219F
:102740000170FFE7FFE7FFE702B010BD80B582B080
:10275000ADF8060043F61440C4F201000068BDF86D
:10276000061008420CD0FFE7BDF8060043F61441FE
:10277000C4F201010860BDF80600FFF7A5FFFFE7FE
:1027800002B080BD87B006900591002003900290B2
:1027900001900490FFE704980F2800F2BD81FFE745
:1027A0000498012101FA00F003900598006803994C
:1027B0000840029002980399884240F0A881FFE700
:1027C0000598406801280FD0FFE705984068022867
:1027D0000AD0FFE705984068112805D0FFE7059863
:1027E000406812282FD1FFE706988068019004986E
:1027F0004000032101FA00F0019921EA0000019054
:102800000598C068049949008840019908430190DF
:102810000198069988600698406801900498012103
:1028200001FA00F0019921EA000001900598406842
:10283000C0F3001004998840019908430190019861
:1028400006994860FFE70698C06801900498400028
:10285000032101FA00F0019921EA00000190059896
:1028600080680499490088400199084301900198C3
:102870000699C86005984068022805D0FFE70598CA
:102880004068122826D1FFE7069804996FF00302EA
:1028900002EA51010844006A0190049800F0070020
:1028A00080000F2101FA00F0019921EA0000019057
:1028B00005980069049901F0070189008840019991
:1028C0000843019001980699049B02EA53021144BF
:1028D0000862FFE706980068019004984000032111
:1028E00001FA00F0019921EA000001900598406882
:1028F00000F00300049949008840019908430190C1
:102900000198069908600598C079C006002840F132
:10291000FD80FFE7FFE70020009043F64400C4F28B
:102920000200016841F480410160006800F48040C9
:1029300000900098FFE7049820F0030043F6080198
:10294000C4F2010140580190049800F00300800097
:102950000F2101FA00F0019921EA00000190069888
:102960000021C4F20201884202D1FFE700204BE0BF
:10297000069840F20041C4F20201884202D1FFE70A
:10298000012040E0069840F60001C4F202018842AE
:1029900002D1FFE7022035E0069840F60041C4F27C
:1029A0000201884202D1FFE703202AE0069841F2A3
:1029B0000001C4F20201884202D1FFE704201FE0B7
:1029C000069841F20041C4F20201884202D1FFE7B9
:1029D000052014E0069841F60001C4F20201884285
:1029E00002D1FFE7062009E0069941F60042C4F251
:1029F00002020820914208BF0720FFE7FFE7FFE738
:102A0000FFE7FFE7FFE7FFE7C0B2049901F003012A
:102A1000890088400199084301900198049921F0A8
:102A2000030143F60802C4F20102885043F6004055
:102A3000C4F20100006801900298019921EA0000A7
:102A4000019005988079C00728B1FFE702980199A5
:102A500008430190FFE7019843F60041C4F20101E9
:102A6000086043F60440C4F2010000680190029837
:102A7000019921EA000001900598807980070028DB
:102A800005D5FFE70298019908430190FFE70198F7
:102A900043F60441C4F20101086043F60840C4F261
:102AA0000100006801900298019921EA000001905C
:102AB00005988079C006002805D5FFE7029801999E
:102AC00008430190FFE7019843F60841C4F2010171
:102AD000086043F60C40C4F20100006801900298BF
:102AE000019921EA0000019005988079800600286C
:102AF00005D5FFE70298019908430190FFE7019887
:102B000043F60C41C4F201010860FFE7FFE7FFE76D
:102B10000498013004903EE607B0704782B0002070
:102B2000C4F2020001900120ADF802000198006992
:102B3000BDF80210084204D0FFE701208DF8010023
:102B400003E000208DF80100FFE79DF8010002B0CE
:102B50007047000082B00190ADF8021001208DF89E
:102B600001009DF8010028B1FFE7BDF802000199BE
:102B7000886105E0BDF80200000401998861FFE763
:102B800002B0704742F20C70C2F200000068704759
:102B900080B584B041F6E870C2F20000029002985D
:102BA00020B9FFE701208DF80F002AE1029890F884
:102BB0003D0040B9FFE70298002180F83C100298E0
:102BC00000F024F9FFE70298242180F83D100298D4
:102BD0000068016821F00101016002980068016845
:102BE00041F40041016002980068016821F400414D
:102BF000016001F043FC00900298406848F2A06137
:102C0000C0F2010188420AD8FFE7009948F28042E9
:102C1000C0F21E020020914238BF012009E0009955
:102C200040F60012C0F23D020020914238BF012060
:102C3000FFE7012804D1FFE701208DF80F00E0E055
:102C400000984DF68361C4F21B31A0FB0101880C92
:102C5000019002980068406820F03F000199084305
:102C600002990968486002980068006A20F03F00F5
:102C70000299496848F2A062C0F20102914203D869
:102C8000FFE7019901310DE001994FF4967251432C
:102C900044F6D352C1F26202A1FB0212012101EB00
:102CA0009211FFE7084302990968086202980068D8
:102CB000C0694CF6FF7188430299496848F2A062E6
:102CC000C0F2010291421BD8FFE700990139029A34
:102CD00052685200B1FBF2F101316FF31F31032949
:102CE00002D8FFE704210AE000990139029A5268EC
:102CF0005200B1FBF2F101316FF31F31FFE742E007
:102D00000299896861B9FFE700990139029A52680E
:102D100002EB4202B1FBF2F101316FF31F310CE023
:102D200000990139029A526819235A43B1FBF2F112
:102D30000131042262F31F31FFE7090511B9FFE7F2
:102D400001211FE00299896861B9FFE70099013903
:102D5000029A526802EB4202B1FBF2F101316FF3C9
:102D60001F310CE000990139029A526819235A4325
:102D7000B1FBF2F10131042262F31F31FFE741F4AC
:102D80000041FFE7FFE7084302990968C86102981C
:102D90000068006820F0C00002990A68CB69096ADF
:102DA00019430843106002980068806848F2FF31B8
:102DB000884302990A68CB680969194308439060FF
:102DC00002980068C06820F0FF0002990A684B6909
:102DD000896919430843D06002980068016841F08E
:102DE000010101600298002101640298202280F80C
:102DF0003D2002980163029880F83E108DF80F1074
:102E0000FFE79DF80F0004B080BD00002DE9F04100
:102E10008AB00990002008900790069005900490D1
:102E20000998006845F60041C4F20001884257D174
:102E3000FFE7FFE70020039043F63000C4F20200F2
:102E4000016841F004010160006800F00400039093
:102E50000398FFE7FFE70020029043F63000C4F23A
:102E60000200016841F001010160006800F001000A
:102E700002900298FFE74FF4007004904FF01208A0
:102E8000CDF8148001260696032707970425089598
:102E900040F60000C4F2020004AC2146FFF772FCC9
:102EA0004FF480700490CDF814800696079708952B
:102EB0000020C4F202002146FFF764FCFFE7002077
:102EC000019043F64000C4F20200016841F40001A1
:102ED0000160006800F4000001900198FFE7FFE73F
:102EE0000AB0BDE8F081000080B584B042F23C0039
:102EF000C2F200000290029820B9FFE701208DF88D
:102F00000F002FE0029800684CF6CC410160029857
:102F1000006845F2555101600298016840684860B8
:102F20000298016880688860FFF72CFE0190FFE737
:102F300002980068C06860B1FFE7FFF723FE0199BF
:102F4000401A312804D3FFE703208DF80F0009E071
:102F5000EEE7029800684AF6AA21016000208DF889
:102F60000F00FFE79DF80F0004B080BD81B042F272
:102F70003C00C2F200000090009800684AF6AA21C6
:102F8000016001B07047000042F20C70C2F2000014
:102F9000016801310160704780B543F60040C4F21A
:102FA0000200016841F400710160016841F4806130
:102FB0000160016841F48071016000F081F8002037
:102FC00000F004F800F034F880BD000080B582B055
:102FD000009040F22C00C2F20000006844F6D35189
:102FE000C1F26201A0FB0101880901F057FF20B185
:102FF000FFE701208DF8070017E000980F280CD894
:10300000FFE700994FF0FF3000F042F8009840F2DF
:103010004421C2F20001086003E001208DF807009E
:1030200003E000208DF80700FFE702B080BD00003C
:1030300082B0FFE70020019043F64400C4F2020092
:10304000016841F480410160006800F48040019013
:103050000198FFE7FFE70020009043F64000C4F22C
:103060000200016841F080510160006800F080506A
:1030700000900098FFE702B07047000080B582B072
:103080008DF807009DF9070008F0F0FD02B080BD43
:1030900010B584B08DF80F000291002001900090CF
:1030A00008F0FEFD00909DF90F4000980299019AEA
:1030B00003F0BCFD0146204608F0FAFD04B010BD47
:1030C00080B582B003200190019808F013FE02B091
:1030D00080BD000082B0019000208DF8030002B096
:1030E0007047000082B042F24800C2F20000019036
:1030F0008020ADF80200BDF802000199096848621D
:1031000002B0704784B042F24802C2F20002039259
:103110008DF80B00ADF8081003980068406A009025
:103120009DF80B0048B9FFE7BDF80800009941EA97
:10313000004003990968886233E003980068806A58
:10314000009901EB1040009000208DF80700FFE788
:103150009DF807009DF80B100139884213D2FFE754
:10316000039800689DF8071000EB8100D0F8040177
:10317000009901EB10400090FFE79DF80700013037
:103180008DF80700E4E7BDF80800009941EA004027
:10319000039909689DF80B2001EB8201C1F8000139
:1031A000FFE704B07047000080B582B0019001983D
:1031B000D0F8040405F0AEFC02B080BD80B582B04A
:1031C00001908DF80310019AD2F804049DF80310C1
:1031D000C1EBC10302EB8302926C05F071FB02B0FC
:1031E00080BD000080B582B001908DF80310019A77
:1031F000D2F804049DF80310C1EBC10302EB830273
:10320000D2F8082205F00CFC02B080BD80B582B077
:1032100001900198D0F8040405F080FC02B080BD54
:1032200080B584B002908DF807109DF80700000665
:1032300000280FD5FFE702989DF8071001F00F0155
:10324000C1EBC10100EB81003C30009000980121EE
:1032500041700FE002989DF8071001F00F01C1EBDB
:10326000C10100EB810000F5FE7000900098002184
:103270004170FFE79DF8070000F00F00009908700B
:10328000FFE7029890F8BC03012804D1FFE7022071
:103290008DF80F0014E00298012180F8BC13FFE7BD
:1032A000FFE702980068009906F000FBFFE702982C
:1032B000002180F8BC13FFE700208DF80F00FFE726
:1032C0009DF80F0004B080BD80B584B002908DF8E9
:1032D00007109DF8070000F00F0002994968884226
:1032E00004D9FFE701208DF80F004DE09DF807009D
:1032F000000600280FD5FFE702989DF8071001F09F
:103300000F01C1EBC10100EB81003C30009000983F
:10331000012141700FE002989DF8071001F00F01A4
:10332000C1EBC10100EB810000F5FE700090009838
:1033300000214170FFE70098002181709DF807008F
:1033400000F00F0000990870FFE7029890F8BC03A6
:10335000012804D1FFE702208DF80F0014E0029845
:10336000012180F8BC13FFE7FFE70298006800998D
:1033700006F0DEFDFFE70298002180F8BC13FFE7AE
:1033800000208DF80F00FFE79DF80F0004B080BD0E
:1033900082B001908DF8031001989DF8031001F0A0
:1033A0000F01C1EBC10100EB8100D0F8140202B0A3
:1033B0007047000080B586B004908DF80F10ADF80E
:1033C0000C208DF80B3000208DF80A009DF80F00BE
:1033D000000600280FD5FFE704989DF80F1001F0B4
:1033E0000F01C1EBC10100EB81003C30019001985D
:1033F000012141700FE004989DF80F1001F00F01BA
:10340000C1EBC10100EB810000F5FE700190019855
:1034100000214170FFE79DF80F0000F00F000199B7
:103420000870BDF80C00019988609DF80B000199A7
:10343000C8700198407820B1FFE701980178C180F9
:10344000FFE79DF80B00022804D1FFE70198002157
:103450000171FFE7FFE7049890F8BC03012804D14D
:10346000FFE702208DF8170015E00498012180F88D
:10347000BC13FFE7FFE704980068019906F0C6F85F
:10348000FFE70498002180F8BC13FFE79DF80A00CD
:103490008DF81700FFE79DF8170006B080BD00000B
:1034A00080B586B005908DF81310039202930598AD
:1034B0009DF8131001F00F01C1EBC10100EB810079
:1034C00000F5FE70019003980199C8600298019977
:1034D0004861019800218161019841709DF81300B5
:1034E00000F00F000199087005980069012804D1C7
:1034F000FFE7039801990861FFE79DF813000007B3
:1035000038B9FFE7059A10680199127C06F0CAFBEA
:1035100006E0059A10680199127C06F0ADFDFFE700
:1035200006B080BD80B584B002908DF807109DF87C
:10353000070000F00F0002994968884204D9FFE7AC
:1035400001208DF80F0058E09DF8070000060028C4
:103550000FD5FFE702989DF8071001F00F01C1EBAE
:10356000C10100EB81003C300090009801214170C6
:103570000DE002989DF80710C1EBC10100EB81003E
:1035800000F5FE700090009800214170FFE7009860
:10359000012181709DF8070000F00F00009908706C
:1035A000FFE7029890F8BC03012804D1FFE702204E
:1035B0008DF80F0021E00298012180F8BC13FFE78D
:1035C000FFE702980068009906F002FD9DF80700E9
:1035D000000740B9FFE7029A1068117C02F571728A
:1035E00006F058FCFFE7FFE70298002180F8BC13C3
:1035F000FFE700208DF80F00FFE79DF80F0004B0F3
:1036000080BD000080B586B005908DF81310039240
:10361000029305989DF8131001F00F01C1EBC10151
:1036200000EB81003C30019003980199C86002983A
:10363000019948610198002181610198012141703F
:103640009DF8130000F00F000199087005980069BB
:10365000012804D1FFE7039801990861FFE79DF86D
:103660001300000738B9FFE7059A10680199127C2A
:1036700006F018FB06E0059A10680199127C06F026
:10368000FBFCFFE706B080BD10B58AB042F24800EF
:10369000C2F2000009900998006808900898079005
:1036A0000998006806F018FF002840F01483FFE72F
:1036B0000998006806F07CFF08B9FFE70BE309985A
:1036C000006806F075FF8007002807D5FFE7099816
:1036D0000068416901F002014161FFE70998006853
:1036E00006F066FF000300287DD5FFE70020039069
:1036F0000998006806F00AFF0590FFE70598002882
:1037000070D0FFE79DF81400C007002863D0FFE7E2
:10371000099800689DF80C1006F032FF04909DF89F
:103720001000C00760B1FFE70798039900EB411054
:103730000121C0F8081B0998039903F00FFBFFE76C
:103740009DF81000000700280CD5FFE709980399A1
:1037500003F0A2FA0798039900EB41100821C0F882
:10376000081BFFE79DF81000C006002808D5FFE7FA
:103770000798039900EB41101021C0F8081BFFE7E0
:103780009DF810008006002815D5FFE7099800690C
:10379000012808D1FFE70999086801F57172012134
:1037A00006F078FBFFE70798039900EB4110202112
:1037B000C0F8081BFFE79DF811008006002809D516
:1037C000FFE70798039900EB41104FF40051C0F850
:1037D000081BFFE7FFE703980130039005984008B6
:1037E00005908BE7FFE70998006806F0E1FE4003CB
:1037F000002840F1B380FFE70998006806F074FEE6
:10380000059000200390FFE70598002800F0A580B0
:10381000FFE79DF81400C007002800F09780FFE73D
:10382000099800689DF80C1006F082FE04909DF83F
:103830001000C007002845D0FFE7039800F00F00F4
:10384000012101FA00F002900298079AD2F8343868
:1038500023EA0000C2F834080798039A00EB4210EC
:10386000C0F808190998006901280BD1FFE70998E9
:103870000399C1EBC10100EB8100416C826C1144E2
:103880008164FFE709989DF80C10FFF797FC0998F1
:103890000069012815D1FFE7039888B9FFE7099867
:1038A0000399C1EBC10100EB8100006D40B9FFE756
:1038B0000999086801F57172012106F0EBFAFFE73A
:1038C000FFE7FFE79DF810000007002808D5FFE795
:1038D0000798039900EB41100821C0F80819FFE789
:1038E0009DF81000C006002808D5FFE70798039947
:1038F00000EB41101021C0F80819FFE79DF81000F7
:103900004006002808D5FFE70798039900EB41100F
:103910004021C0F80819FFE79DF810008007002833
:1039200008D5FFE70798039900EB41100221C0F882
:103930000819FFE79DF810000006002805D5FFE7ED
:103940000998039903F0F8FAFFE7FFE703980130BD
:10395000039005984008059056E7FFE7099800682E
:1039600006F026FEC00F00B3FFE70798D0F8041852
:1039700021F00101C0F80418099890F8F403012817
:1039800008D1FFE70998002180F8F4130998FFF7A0
:10399000A1FB03E0099800F08BFBFFE709980068A2
:1039A000416901F000414161FFE70998006806F0B4
:1039B000FFFD0005002811D5FFE70798D0F808089B
:1039C000C00720B1FFE7099800F000FCFFE7099865
:1039D0000068416901F400614161FFE709980068EE
:1039E00006F0E6FDC00400287AD5FFE70798D0F876
:1039F000041821F00101C0F804180998006806F0C5
:103A00001BFD00200690FFE7069809994968884247
:103A100027D2FFE70798069900EB41104FF67F3158
:103A2000C0F808190798069A00EB4210D0F8002950
:103A300022F40012C0F800290798069A00EB421001
:103A4000C0F8081B0798069900EB4110D0F8001B3E
:103A500021F40011C0F8001BFFE706980130069022
:103A6000D2E70798D0F81C1841F00111C0F81C18D3
:103A70000998006B78B1FFE70798D0F8841841F0F7
:103A80000B01C0F884180798D0F8441841F00B01D6
:103A9000C0F844180FE00798D0F8141842F22B022F
:103AA0001143C0F814180798D0F8101841F00B0112
:103AB000C0F81018FFE70798D0F8001821F4FE614D
:103AC000C0F80018099A1068117C02F5717206F0AE
:103AD000E1F909980068416901F480514161FFE70B
:103AE0000998006806F064FD800400281ED5FFE7F1
:103AF0000998006805F0F8FD0998006806F0C6FC12
:103B00000999C8600998046800F0B2FC0146099858
:103B1000027B204606F0D8FD099800F09FFA09982C
:103B20000068416901F400514161FFE709980068AC
:103B300006F03EFDC00600285FD5FFE70998006843
:103B4000816921F0100181610898006A019009984B
:103B5000019901F00F01C1EBC10100EB810000F5FB
:103B6000FE700090019800F4F0100221B1EB504F6C
:103B700021D1FFE7BDF8040047F6F071084219D0E3
:103B8000FFE708980099C968019AC2F30A1206F083
:103B90001DFD019847F6F0710840009AD36803EBC9
:103BA0001010D0600198084000998A6902EB10104B
:103BB0008861FFE71AE0019800F4F0100621B1EBEC
:103BC000504F11D1FFE70898099901F5717108224A
:103BD00006F0FCFC019847F6F071084000998A69EC
:103BE00002EB1010886100E0FFE7FFE7099800682A
:103BF000816941F010018161FFE70998006806F0D2
:103C0000D7FC000700280AD5FFE7099800F05AFA08
:103C100009980068416901F008014161FFE70998CE
:103C2000006806F0C5FCC00200280ED5FFE70020A2
:103C3000039009989DF80C1000F050F8099800685E
:103C4000416901F480114161FFE70998006806F0BD
:103C5000AFFC800200280ED5FFE7002003900998F2
:103C60009DF80C1000F048F809980068416901F4CB
:103C700000114161FFE70998006806F099FC4000D7
:103C800000280AD5FFE70998FFF78EFA099800681F
:103C9000416901F080414161FFE70998006806F041
:103CA00087FC4007002815D5FFE7099800684068A1
:103CB00001909DF804004007002804D5FFE709980B
:103CC000FFF7A4FAFFE70198099909684A681043C9
:103CD0004860FFE7FFE70AB010BD000080B582B082
:103CE00001908DF803100198D0F804049DF803109A
:103CF00004F094FF02B080BD80B582B001908DF8D1
:103D000003100198D0F804049DF8031004F08CFF10
:103D100002B080BD2DE9F04F8FB042F24800C2F2F0
:103D200000000D900D9820B9FFE701208DF83B00B1
:103D300038E10D9800680C900D9890F8BD0340B9DB
:103D4000FFE70D98002180F8BC130D9800F030F9C2
:103D5000FFE70D98032180F8BD130C98C06BC005D8
:103D6000002804D4FFE70D9800210161FFE70D98BA
:103D7000006805F08DFFDDF834C0DCF80000DCF8E9
:103D80000410DCF80820DCF80C30DCF810E0DCF87B
:103D90001480DCF81890DCF81CA0DCF820B0DCF80B
:103DA0002440DCF82850DCF82C60DCF83070DCF8BB
:103DB00034C0CDF824C00897079606950594CDF831
:103DC00010B0CDF80CA0CDF80890CDF80480CDF857
:103DD00000E005F0AFFC40B1FFE70D98022180F84C
:103DE000BD1301208DF83B00DCE00D98006806F063
:103DF00013FC00208DF82F00FFE79DF82F000D9990
:103E00004968884245D2FFE70D989DF82F10C1EB15
:103E1000C10100EB8100012180F83D109DF82F00C9
:103E20000D99C0EBC00201EB820181F83C009DF8C6
:103E30002F000D99C0EBC00201EB8201A1F84200F6
:103E40000D989DF82F10C1EBC10100EB81000021FE
:103E500080F83F100D989DF82F20C2EBC20200EBB6
:103E6000820041640D989DF82F20C2EBC20200EB46
:103E7000820081640D989DF82F20C2EBC20200EBF6
:103E800082000165FFE79DF82F0001308DF82F00BB
:103E9000B3E700208DF82F00FFE79DF82F000D9964
:103EA000496888423ED2FFE70D989DF82F10C1EB7C
:103EB000C10100EB8100002180F8FD119DF82F0069
:103EC0000D9AC0EBC00302EB830282F8FC010D984F
:103ED0009DF82F20C2EBC20200EB820080F8FF1198
:103EE0000D989DF82F20C2EBC20200EB8200C0F8B3
:103EF00004120D989DF82F20C2EBC20200EB820045
:103F0000C0F808120D989DF82F20C2EBC20200EBFA
:103F10008200C0F81012FFE79DF82F0001308DF8E5
:103F20002F00BAE70D9F38687968BA68FB68D7F840
:103F300010C0D7F814E0D7F81880D7F81C90D7F83D
:103F400020A0D7F824B0BE6AFD6A3C6B7F6B09974E
:103F5000089407950696CDF814B0CDF810A0CDF8CA
:103F60000C90CDF80880CDF804E0CDF800C005F045
:103F700023FD40B1FFE70D98022180F8BD13012019
:103F80008DF83B000EE00D98002480F838400D9825
:103F9000012180F8BD130D98006805F0FBFC8DF839
:103FA0003B40FFE79DF83B000FB0BDE8F08F0000FD
:103FB00080B588B00790002006900590049003908B
:103FC000029007980068B0F1A04F45D1FFE7FFE7E6
:103FD0000020019043F63000C4F20200016841F075
:103FE00001010160006800F0010001900198FFE705
:103FF0004FF4C05002900220039000200490032050
:1040000005900A2006900020C4F2020002A9FEF7E3
:10401000B9FBFFE743F63400C4F20200016841F047
:1040200080010160FFE70020009043F64400C4F2E5
:104030000200016841F480410160006800F48040A2
:1040400000900098FFE7FFE743200021FFF720F8EA
:104050004320FFF713F8FFE708B080BD80B582B0BA
:10406000019001208DF803000198C06820B9FFE796
:1040700000208DF803000CE00198C068022804D1EC
:10408000FFE701208DF8030002E0AFF30080FFE7B7
:10409000FFE70198D0F804049DF8031004F068FECF
:1040A0000198D0F8040404F00BFE02B080BD0000BB
:1040B00080B582B001900198D0F8040404F036FE77
:1040C00002B080BD80B582B001900198D0F80404A0
:1040D00004F036FE02B080BD80B584B002908DF849
:1040E0000710FFE7029890F8BC03012804D1FFE70E
:1040F00002208DF80F001AE00298012180F8BC130D
:10410000FFE7FFE79DF80700029981F83800029861
:1041100000689DF8071006F0ADFAFFE7029800214D
:1041200080F8BC13FFE700208DF80F00FFE79DF833
:104130000F0004B080BD000080B582B001900199ED
:10414000D1F8040401F5717104F038FE02B080BDAD
:1041500080B584B00290029800680190FFE7029851
:1041600090F8BC03012804D1FFE702208DF80F006E
:1041700027E00298012180F8BC13FFE7FFE70298CF
:10418000806A01280BD1FFE702988069012806D0D8
:10419000FFE70198816B41F480318163FFE702986A
:1041A000006805F0E5FB0298006806F015F9FFE7E6
:1041B0000298002180F8BC13FFE700208DF80F0063
:1041C000FFE79DF80F0004B080BD000080B582B00D
:1041D00001900198D0F8040404F060FE0198006892
:1041E000D0F8001E41F00101C0F8001E0198006ADD
:1041F00048B1FFE74EF61050CEF20000016841F0E2
:1042000006010160FFE702B080BD000080B584B008
:10421000029005200190029820B9FFE701208DF857
:104220000F0021E1019843F60041C4F20201096840
:1042300001F00F01884212D9FFE7019843F60041CF
:10424000C4F202010870086800F00F00019988426A
:1042500004D0FFE701208DF80F0005E1FFE7029889
:104260000078800700282AD5FFE7029800784007E9
:10427000002809D5FFE743F60800C4F202000168F0
:1042800041F4E0510160FFE7029800780007002840
:1042900009D5FFE743F60800C4F20200016841F4C3
:1042A00060410160FFE743F60800C4F202000168C4
:1042B00021F0F001029A926811430160FFE7029831
:1042C0000078C00700286ED0FFE7029840680128F8
:1042D00011D1FFE743F60000C4F20200006800F4C9
:1042E00000300021B1EB504F04D1FFE701208DF8E1
:1042F0000F00B9E02CE002984068022805D0FFE7E3
:1043000002984068032811D1FFE743F60000C4F289
:104310000200006800F000700021B1EB506F04D182
:10432000FFE701208DF80F009EE010E043F600004B
:10433000C4F20200006800F002000021B1EB500F4F
:1043400004D1FFE701208DF80F008DE0FFE7FFE7C4
:1043500043F60800C4F20200016821F00301029A4A
:10436000526811430160FEF70DFC0090FFE743F631
:104370000800C4F20200006800F00C0002994968CD
:10438000B0EB810F0ED0FFE7FEF7FCFB0099401A5F
:1043900041F28931884204D3FFE703208DF80F00F2
:1043A00062E0E4E7FFE7019843F60041C4F202014E
:1043B000096801F00F01884212D2FFE7019843F625
:1043C0000041C4F202010870086800F00F00019972
:1043D000884204D0FFE701208DF80F0044E0FFE79A
:1043E00002980078400700280CD5FFE743F6080044
:1043F000C4F20200016821F4E051029AD26811432C
:104400000160FFE702980078000700280DD5FFE75C
:1044100043F60800C4F20200016821F46041029AE8
:10442000126941EAC2010160FFE700F04BF843F670
:104430000801C4F202010968C9B209094CF22072EC
:10444000C0F60002515CC84040F22C01C2F20001EB
:10445000086040F24420C2F200000068FEF7B6FD9A
:1044600000208DF80F00FFE79DF80F0004B080BD1D
:1044700040F22C00C2F200000068704780B5FFF7E0
:10448000F7FF43F60801C4F202010968C1F3822173
:104490004CF23872C0F60002515CC84080BD00008A
:1044A00080B5FFF7E5FF43F60801C4F20201096891
:1044B00089B2490B4CF23872C0F60002515CC84018
:1044C00080BD000080B584B0002003900290019070
:1044D000009043F60800C4F20200006800F00C00EF
:1044E00030B1FFE7042809D0FFE708280CD04FE0DF
:1044F00042F20040C0F2F40000904FE041F600307C
:10450000C0F2B700009049E043F60400C4F2020094
:10451000016801F03F01039100684002002813D5B3
:10452000FFE743F60400C4F202000068C0F38810FD
:1045300041F60031C0F2B701A0FB0101039A00234C
:10454000FBF747FE029012E043F60400C4F20200BB
:104550000068C0F3881042F20041C0F2F401A0FBF1
:104560000101039A0023FBF734FE0290FFE743F6B4
:104570000400C4F20200006800F44030022101EBA4
:10458000D030019002980199B0FBF1F0009005E065
:1045900042F20040C0F2F4000090FFE7009804B03F
:1045A00080BD000080B586B00490049820B9FFE774
:1045B00001208DF8170043E304980078C007002815
:1045C00000F0A580FFE743F60800C4F2020000688F
:1045D00000F00C00042813D0FFE743F60800C4F2F3
:1045E0000200006800F00C0008281ED1FFE743F627
:1045F0000400C4F2020000684002002815D5FFE75D
:1046000043F60000C4F20200006800F4003000210C
:10461000B1EB504F08D0FFE70498406820B9FFE79E
:1046200001208DF817000BE370E0FFE70498406865
:10463000B0F5803F09D1FFE743F60000C4F2020065
:10464000016841F48031016020E004984068B0F5D1
:10465000A02F0DD1FFE743F60000C4F2020001686D
:1046600041F480210160016841F4803101600CE077
:1046700043F60000C4F20200016821F480310160B9
:10468000016821F480210160FFE7FFE7FFE704985C
:104690004068E8B1FFE7FEF775FA0390FFE743F6DD
:1046A0000000C4F20200006800F400300021B1EB09
:1046B000504F0CD1FFE7FEF765FA0399401A6528C1
:1046C00004D3FFE703208DF81700B9E2E7E71CE009
:1046D000FEF758FA0390FFE743F60000C4F2020029
:1046E000006800F400300021B1EB504F0CD0FFE720
:1046F000FEF748FA0399401A652804D3FFE7032020
:104700008DF817009CE2E7E7FFE7FFE7FFE7049873
:1047100000788007002840F19680FFE743F6080004
:10472000C4F20200006810F00C0F13D0FFE743F64C
:104730000800C4F20200006800F00C0008282CD128
:10474000FFE743F60400C4F20200006840020028BC
:1047500023D4FFE743F60000C4F20200006800F033
:1047600002000021B1EB500F09D0FFE70498C068A8
:10477000012804D0FFE701208DF8170060E243F61E
:104780000000C4F20200016821F0F801049A1269E5
:1047900041EAC2010160FFE754E00498C06870B3C9
:1047A000FFE70020C4F2472001210160FEF7EAF98B
:1047B0000390FFE743F60000C4F20200006800F037
:1047C00002000021B1EB500F0CD1FFE7FEF7DAF940
:1047D0000399401A032804D3FFE703208DF817003C
:1047E0002EE2E7E743F60000C4F20200016821F080
:1047F000F801049A126941EAC201016021E0002037
:10480000C4F2472000210160FEF7BCF90390FFE7E6
:1048100043F60000C4F20200006800F0020000212C
:10482000B1EB500F0CD0FFE7FEF7ACF90399401A3B
:10483000032804D3FFE703208DF8170000E2E7E721
:10484000FFE7FFE7FFE704980078000700284BD553
:10485000FFE70498406918B3FFE740F68060C4F2B0
:10486000472001210160FEF78DF90390FFE743F631
:104870007400C4F20200006800F002000021B1EBF5
:10488000500F0CD1FFE7FEF77DF90399401A03287A
:1048900004D3FFE703208DF81700D1E1E7E722E01A
:1048A00040F68060C4F2472000210160FEF76AF9FB
:1048B0000390FFE743F67400C4F20200006800F0C2
:1048C00002000021B1EB500F0CD0FFE7FEF75AF9C0
:1048D0000399401A032804D3FFE703208DF817003B
:1048E000AEE1E7E7FFE7FFE704980078400700281C
:1048F00040F1CE80FFE700208DF8070043F640002E
:10490000C4F202000068C000002815D4FFE7FFE7EA
:104910000020009043F64000C4F20200016841F01C
:1049200080510160006800F0805000900098FFE71F
:1049300001208DF80700FFE747F20000C4F20000F5
:104940000068C005002822D4FFE747F20000C4F247
:104950000000016841F480710160FEF713F90390D3
:10496000FFE747F20000C4F200000068C00500281D
:104970000CD4FFE7FEF706F90399401A032804D385
:10498000FFE703208DF817005AE1EAE7FFE7FFE7AA
:1049900004988068012809D1FFE743F67000C4F24B
:1049A0000200016841F0010101601FE00498806885
:1049B00005280DD1FFE743F67000C4F2020001683C
:1049C00041F004010160016841F0010101600CE067
:1049D00043F67000C4F20200016821F00101016099
:1049E000016821F004010160FFE7FFE7FFE7049899
:1049F0008068F8B1FFE7FEF7C5F80390FFE743F6DC
:104A00007000C4F20200006800F002000021B1EB67
:104A1000500F0ED1FFE7FEF7B5F80399401A41F2A7
:104A20008931884204D3FFE703208DF8170007E19E
:104A3000E5E71EE0FEF7A6F80390FFE743F67000F7
:104A4000C4F20200006800F002000021B1EB500F38
:104A50000ED0FFE7FEF796F80399401A41F289312C
:104A6000884204D3FFE703208DF81700E8E0E5E76C
:104A7000FFE79DF80700012809D1FFE743F6400052
:104A8000C4F20200016821F080510160FFE7FFE7F6
:104A900004988069002800F0CF80FFE743F6080003
:104AA000C4F20200006800F00C00082800F08580C5
:104AB000FFE70498806902285CD1FFE76020C4F218
:104AC000472000210160FEF75DF80390FFE743F601
:104AD0000000C4F20200006800F000700021B1EB99
:104AE000506F0CD0FFE7FEF74DF80399401A0328EA
:104AF00004D3FFE703208DF81700A1E0E7E704984F
:104B0000D0F81CC0026A436A816A42EA0C0242EA97
:104B10008312C9034FF6FF739943A1F58031114306
:104B2000C06A41EA006043F60401C4F20201086071
:104B30006020C4F2472001210160FEF723F80390B2
:104B4000FFE743F60000C4F20200006800F00070C6
:104B50000021B1EB506F0CD1FFE7FEF713F803997A
:104B6000401A032804D3FFE703208DF8170067E0FD
:104B7000E7E721E06020C4F2472000210160FEF752
:104B800001F80390FFE743F60000C4F2020000685A
:104B900000F000700021B1EB506F0CD0FFE7FDF783
:104BA000F1FF0399401A032804D3FFE703208DF88F
:104BB000170045E0E7E7FFE73DE00498806901283A
:104BC00004D1FFE701208DF8170039E043F6080013
:104BD000C4F2020000680290029800F48000049978
:104BE000C969884221D1FFE7029800F03F0004998B
:104BF000096A884219D1FFE7029847F6C071084058
:104C00000499496A884210D1FFE7029800F44030C5
:104C10000499896A884208D1FFE7029800F0706021
:104C20000499C96A884204D0FFE701208DF8170073
:104C300006E0FFE7FFE7FFE700208DF81700FFE73A
:104C40009DF8170006B080BD80B582B00090009836
:104C500020B9FFE701208DF807004EE00098406A78
:104C600008B9FFE7FFE7009800218162009890F8FB
:104C7000510040B9FFE70098002180F850100098DB
:104C800000F040F8FFE70098022180F851100098EA
:104C90000068016821F0400101600098D0F800C070
:104CA00042688368C1681A4311430269114342692B
:104CB0001143826902F400721143C2691143026A0E
:104CC0001143806A0843CCF800000098418B01F042
:104CD00004010268406A0843506000980068C16996
:104CE00021F40061C1610098002141650098012212
:104CF00080F851208DF80710FFE79DF8070002B0FB
:104D000080BD00002DE9F0418CB00B9000200A908E
:104D100009900890079006900B98006843F20001F4
:104D2000C4F20101884255D1FFE7FFE7002005905A
:104D300043F64400C4F20200016841F4805101606E
:104D4000006800F4805005900598FFE7FFE7002019
:104D5000049043F63000C4F20200016841F0020101
:104D60000160006800F0020004900498FFE7FFE78C
:104D70000020039043F63000C4F20200016841F0C5
:104D800001010160006800F0010003900398FFE753
:104D9000182006904FF00208CDF81C8000260896D7
:104DA0000327099705250A9540F20040C4F2020046
:104DB00006AC2146FDF7E6FC80200690CDF81C806D
:104DC000089609970A950020C4F202002146FDF7D3
:104DD000D9FC60E00B98006843F60001C4F20001C2
:104DE000884257D1FFE7FFE70020029043F64000DA
:104DF000C4F20200016841F480410160006800F4DF
:104E0000804002900298FFE7FFE70020019043F600
:104E10003000C4F20200016841F480710160006852
:104E200000F4807001900198FFE7FFE700200090F8
:104E300043F63000C4F20200016841F00201016053
:104E4000006800F0020000900098FFE70420069040
:104E50004FF00208CDF81C8000260896032709971A
:104E600005250A9542F20000C4F2020006AC214674
:104E7000FDF788FC4FF420400690CDF81C80089682
:104E800009970A9540F20040C4F202002146FDF75E
:104E900079FCFFE7FFE70CB0BDE8F08180B582B098
:104EA0000190019802F0E0F802B080BD81B000905E
:104EB00001B0704781B0009001B0704784B002909B
:104EC000019100200090FFE7029890F83C00012833
:104ED00004D1FFE702208DF80F0044E00298012181
:104EE00080F83C10FFE7FFE7009820F0FF000199F1
:104EF000C96808430090009820F4407001998968BF
:104F000008430090009820F48060019949680843A4
:104F10000090009820F4006001990968084300900F
:104F2000009820F480500199096908430090009886
:104F300020F400500199496908430090009820F43A
:104F400080400199C9690843009000980299096856
:104F50004864FFE70298002180F83C10FFE700203A
:104F60008DF80F00FFE79DF80F0004B070470000B8
:104F700085B003900291FFE7039890F83C00012868
:104F800004D1FFE702208DF813007EE00398012191
:104F900080F83C10FFE7FFE70398022180F83D10FE
:104FA000039800684068019003980068806800904A
:104FB000019820F070000190029800680199084360
:104FC00001900198039909684860039800680021DE
:104FD000C4F2010188423CD0FFE703980068B0F1B9
:104FE000804F36D0FFE70398006840F20041C4F2DA
:104FF000000188422DD0FFE70398006840F60001C9
:10500000C4F20001884224D0FFE70398006840F60C
:105010000041C4F2000188421BD0FFE703980068FA
:1050200040F20041C4F20101884212D0FFE7039828
:10503000006844F20001C4F20101884209D0FFE790
:105040000398006841F60001C4F2000188420ED1C5
:10505000FFE7009820F080000090029840680099D7
:10506000084300900098039909688860FFE7039857
:10507000012180F83D10FFE70398002180F83C10E3
:10508000FFE700208DF81300FFE79DF8130005B03F
:105090007047000080B582B00090009820B9FFE70B
:1050A00001208DF807001DE0009890F83D0040B900
:1050B000FFE70098002180F83C10009800F016F8F7
:1050C000FFE70098022180F83D10009951F8040B89
:1050D00002F09EF80098012180F83D1000208DF824
:1050E0000700FFE79DF8070002B080BD80B586B0DD
:1050F0000590059800680021C4F20101884219D189
:10510000FFE7FFE70020049043F64400C4F20200EA
:10511000016841F001010160006800F001000490A5
:105120000498FFE719200921FDF7B2FF1920FDF7C8
:10513000A5FF76E00598006840F60001C4F2000182
:10514000884212D1FFE7FFE70020039043F64000BA
:10515000C4F20200016841F004010160006800F03F
:10516000040003900398FFE75AE00598006840F6B2
:105170000041C4F20001884212D1FFE7FFE700209E
:10518000029043F64000C4F20200016841F00801B9
:105190000160006800F0080002900298FFE73EE01E
:1051A0000598006840F20041C4F20101884212D122
:1051B000FFE7FFE70020019043F64400C4F202003D
:1051C000016841F002010160006800F002000190F6
:1051D0000198FFE722E00598006844F20041C4F21C
:1051E0000101884219D1FFE7FFE70020009043F654
:1051F0004400C4F20200016841F40031016000681B
:1052000000F4003000900098FFE719200921FDF715
:105210003FFF1920FDF732FFFFE7FFE7FFE7FFE75A
:10522000FFE706B080BD000082B0019001980068E1
:10523000C16841F00101C16001980068806800F018
:10524000070000900098062807D0FFE70198006843
:10525000016841F001010160FFE702B07047000002
:1052600080B584B002900191FFE7029890F83C006D
:10527000012804D1FFE702208DF80F009DE002987D
:10528000012180F83C10FFE7FFE70298022180F837
:105290003D100298006880680090009820F0770028
:1052A0000090009820F47F400090009802990968CF
:1052B000886001980068002869D0FFE7102866D050
:1052C000FFE7202863D0FFE7302860D0FFE74028C1
:1052D00050D0FFE7502833D0FFE760283DD0FFE7EC
:1052E000702809D0FFE7B0F5805F04D0FFE7B0F584
:1052F000005F16D052E052E002980068019B5A68A5
:105300009968DB6802F06EF8029800688068009087
:10531000009840F077000090009802990968886032
:105320003DE002980068019B5A689968DB6802F0CA
:1053300059F802980068816841F4804181602EE04C
:1053400002980068019A5168D26802F037FA029810
:105350000068502102F060F821E002980068019A8C
:105360005168D26802F052FA02980068602102F097
:1053700053F814E002980068019A5168D26802F06C
:105380001DFA02980068402102F046F807E00298F2
:1053900000680199096802F03FF800E0FFE7029811
:1053A000012180F83D10FFE70298002180F83C10B1
:1053B000FFE700208DF80F00FFE79DF80F0004B015
:1053C00080BD000081B0009001B0704780B582B010
:1053D000019001980068006900F002000021B1EB23
:1053E000500F28D0FFE701980068C06800F0020065
:1053F0000021B1EB500F1DD0FFE7019800686FF05E
:10540000020101610198012101770198006880691A
:10541000800720B1FFE70198FFF7D4FF06E001986D
:1054200000F0ECF9019800F0BDFAFFE701980021C7
:105430000177FFE7FFE701980068006900F00400CA
:105440000021B1EB900F29D0FFE701980068C068F8
:1054500000F004000021B1EB900F1ED0FFE701988F
:1054600000686FF004010161019802210177019841
:105470000068806910F4407F04D0FFE70198FFF7CF
:10548000A1FF06E0019800F0B9F9019800F08AFA4E
:10549000FFE7019800210177FFE7FFE70198006827
:1054A000006900F008000021B1EBD00F28D0FFE721
:1054B00001980068C06800F008000021B1EBD00F2F
:1054C0001DD0FFE7019800686FF0080101610198A5
:1054D0000421017701980068C069800720B1FFE7C7
:1054E0000198FFF76FFF06E0019800F087F9019837
:1054F00000F058FAFFE7019800210177FFE7FFE786
:1055000001980068006900F010000021B1EB101F45
:1055100029D0FFE701980068C06800F01000002162
:10552000B1EB101F1ED0FFE7019800686FF010016B
:10553000016101980821017701980068C06910F4A1
:10554000407F04D0FFE70198FFF73CFF06E0019899
:1055500000F054F9019800F025FAFFE701980021C6
:105560000177FFE7FFE7019800680069C00780B195
:10557000FFE701980068C068C00748B1FFE70198DD
:1055800000686FF001010161019800F04DFAFFE73A
:10559000FFE7019800680069C0B20021B1EBD01F9D
:1055A00013D0FFE701980068C068C0B20021B1EBDA
:1055B000D01F09D0FFE7019800686FF080010161FA
:1055C0000198FFF773FCFFE7FFE7019800680069A7
:1055D00000F040000021B1EB901F14D0FFE70198CC
:1055E0000068C06800F040000021B1EB901F09D0B6
:1055F000FFE7019800686FF040010161019800F039
:1056000063FAFFE7FFE701980068006900F02000F7
:105610000021B1EB501F14D0FFE701980068C0686B
:1056200000F020000021B1EB501F09D0FFE70198E6
:1056300000686FF0200101610198FFF73BFCFFE774
:10564000FFE702B080BD0000F0B58BB00A900020EB
:10565000099008900790069005900A98006800212C
:10566000C4F20101884223D1FFE7FFE70020049044
:1056700043F63000C4F20200016841F010010160FD
:10568000006800F0100004900498FFE74FF4D44045
:1056900005900220069000200790089001200990B4
:1056A00041F20000C4F2020005A9FDF76BF8A2E088
:1056B0000A98006840F60001C4F20001884222D135
:1056C000FFE7FFE70020039043F63000C4F202003A
:1056D000016841F008010160006800F008000390D3
:1056E0000398FFE74FF480400590022006900021C8
:1056F00007910891099040F60040C4F2020005A904
:10570000FDF740F876E00A98006840F60041C4F2E0
:105710000001884222D1FFE7FFE70020029043F614
:105720003000C4F20200016841F0800101600068AD
:1057300000F0800002900298FFE74FF4E0500590DF
:1057400002200690002107910891099041F600403F
:10575000C4F2020005A9FDF715F84AE00A980068AE
:1057600040F20041C4F20101884241D1FFE7FFE766
:105770000020019043F63000C4F20200016841F4B9
:1057800080710160006800F4807001900198FFE76B
:10579000FFE70020009043F63000C4F202000168E9
:1057A00041F004010160006800F0040000900098DE
:1057B000FFE7C0200590022506950026079608966B
:1057C0000327099742F20000C4F2020005AC21460B
:1057D000FCF7D8FF40200590069507960896099794
:1057E00040F60000C4F202002146FCF7CBFFFFE7C1
:1057F000FFE7FFE7FFE70BB0F0BD000081B00090CE
:1058000001B0704780B584B0029001910092FFE72B
:10581000029890F83C00012804D1FFE702208DF89F
:105820000F008BE00298012180F83C10FFE7FFE7B2
:105830000298022180F83D1000980C2800F26F8039
:10584000DFE800F0076D6D6D206D6D6D3A6D6D6D6B
:10585000530002980068019901F0F4FD0298006875
:10586000816941F00801816102980068816921F035
:105870000401816101980069029909688A691043ED
:1058800088614DE002980068019901F051FE02988C
:105890000068816941F40061816102980068816952
:1058A00021F48061816101980069029909688A691F
:1058B00042EA0020886133E002980068019901F013
:1058C000B1FE02980068C16941F00801C161029807
:1058D0000068C16921F00401C16101980069029961
:1058E0000968CA691043C8611AE002980068019902
:1058F00001F012FF02980068C16941F40061C161C2
:1059000002980068C16921F48061C1610198006951
:1059100002990968CA6942EA0020C86100E0FFE70D
:105920000298012180F83D10FFE70298002180F8DD
:105930003C10FFE700208DF80F00FFE79DF80F00F7
:1059400004B080BD80B582B00090009820B9FFE718
:1059500001208DF807001DE0009890F83D0040B947
:10596000FFE70098002180F83C10009800F016F83E
:10597000FFE70098022180F83D10009951F8040BD0
:1059800001F046FC0098012180F83D1000208DF8C0
:105990000700FFE79DF8070002B080BD81B00090CE
:1059A00001B0704781B0009001B0704780B584B0FD
:1059B00042F2C051C2F200010391029003980068C4
:1059C000029901F0F3FC0398016801200022C4F25F
:1059D000010291420BD0FFE7039800684FF60041A7
:1059E000CBF6FE710844B0FA80F04009FFE7C0072B
:1059F00038B1FFE703980068416C41F4004141640D
:105A0000FFE703980068806800F0070001900198A4
:105A1000062807D0FFE703980068016841F00101FC
:105A20000160FFE704B080BD10B582B0019042F282
:105A30000070C2F20000007808B9FFE742E0019868
:105A400042F24051C2F2000188423BD1FFE742F2EC
:105A50000870C2F20000017841F28830002918BFB6
:105A60004FF4FA7005F022F905F0DAF941F6401426
:105A7000C2F2000420680130206004F049FF04F005
:105A8000F5FF05F0F3FD04F0C9FF2068152818D3D1
:105A9000FFE742F21070C2F2000090ED000AB2EE91
:105AA000041AB4EE410AF1EE10FA03DAFFE7FDF74B
:105AB0005DFAFFE741F64010C2F2000000210160EC
:105AC000FFE7FFE702B010BD81B0009001B0704762
:105AD00081B0009001B0704780B586B00590059800
